:020000040800F2
:10000000B86600246D0400083D9D00087991000841
:10001000399D0008B90B0008A5BF000800000000CA
:10002000000000000000000000000000AD03000818
:100030006D1200080000000009040008C7A70008AE
:100040008704000887040008870400088704000864
:100050008704000887040008870400088704000854
:100060008704000887040008870400088704000844
:1000700087040008D10C00088704000887040008E2
:10008000E10C0008870400088704000875120008C6
:100090009512000885120008A512000887040008C0
:1000A0008704000887040008870400088704000804
:1000B00087040008870400088704000887040008F4
:1000C00087040008870400088704000887040008E4
:1000D0008704000895BF000887040008870400080B
:1000E0008704000887040008000000008704000857
:1000F00087040008870400088704000887040008B4
:1001000087040008870400088704000887040008A3
:1001100087040008F5AD000887040008870400087C
:1001200087040008F10C0008870400088704000811
:100130008704000887040008870400088704000873
:1001400000000000000000000000000000000000AF
:100150008704000887040008870400088704000853
:100160008704000887040008870400088704000843
:1001700087040008870400088704000800000000C6
:100180008704000887040008870400088704000823
:100190008704000887040008870400088704000813
:1001A0008704000887040008870400080000000096
:1001B00087040008870400088704000887040008F3
:1001C0008704000887040008000000000000000009
:1001D000000000000000000087040008000000008C
:1001E000000000000000000000000000000000000F
:1001F00000000000000000008704000887040008D9
:100200008704000887040008000000008704000835
:100210008704000887040008870400088704000892
:1002200087040008000000008704000800000000A8
:100230008704000887040008000000008704000805
:100240008704000887040008870400088704000862
:100250008704000887040008870400088704000852
:100260008704000887040008870400088704000842
:1002700087040008870400088704000800000000C5
:100280008704000887040008870400088704000822
:100290000000000087040008870400080000000038
:1002A0000000000087040008870400088704000895
:1002B000870400088704000887040008B5120008B6
:1002C000C512000879A900088704000800F002F8A8
:1002D00000F05CF80AA090E8000C82448344AAF184
:1002E0000107DA4501D100F051F8AFF2090EBAE882
:1002F0000F0013F0010F18BFFB1A43F0010318475A
:10030000A8F60000C8F600000A444FF0000C10F8F0
:10031000013B13F0070408BF10F8014B1D1108BF83
:1003200010F8015B641E05D010F8016B641E01F823
:10033000016BF9D113F0080F1EBF10F8014BAD1C73
:100340000C1B09D16D1E58BF01F801CBFAD505E091
:1003500014F8016B01F8016B6D1EF9D59142D6D3EB
:10036000704700000023002400250026103A28BF13
:1003700078C1FBD8520728BF30C148BF0B60704717
:100380001FB50EF0DFFE1FBD10B510BD00F0E5F982
:100390001146FFF7F5FF0CF0C5FC00F003FA03B4BB
:1003A000FFF7F2FF03BC00F007FA00002C4B1968BE
:1003B0000868B0E8F04F80F30988BFF36F8F4FF003
:1003C000000080F3118870470000000008480068B2
:1003D000006880F308884FF0000080F3148862B64C
:1003E00061B6BFF34F8FBFF36F8F00DF00BF00BF59
:1003F00008ED00E0DFF80C00016841F470010160D5
:10040000704700BF88ED00E0EFF30980BFF36F8F06
:10041000134B1A681EF0100F08BF20ED108A20E958
:10042000F04F106009B44FF0500080F31188BFF313
:100430004F8FBFF36F8F0DF01FFF4FF0000080F361
:10044000118809BC19680868B0E8F04F1EF0100F59
:1004500008BFB0EC108A80F30988BFF36F8F704734
:10046000C8000024EFF3058070470000094880476A
:1004700009480047FEE7FEE7FEE7FEE7FEE7FEE786
:10048000FEE7FEE7FEE7FEE704480549054A064B9E
:100490007047000099A80008CD020008B85C00244D
:1004A000B8660024B85E0024B85E002453EA020C4B
:1004B00000F069802DE9F04B4FF00006002B1FBFC4
:1004C000B3FA83F503FA05F424FA05F65E4012BF89
:1004D0001643B2FA82F502FA05F4C5F120051EBFF3
:1004E00022FA05FC44EA0C04203556EA044C4FEA93
:1004F000144418BF641C4FF000084FF000099042EC
:1005000071EB030C39D3002919BFB1FA81F701FA55
:1005100007F6B0FA80F700FA07F6C7F120071EBF0A
:1005200020FA07FC46EA0C062037B6FBF4FCA7EBE2
:100530000507103F07F01F0BCBF120060CFA0BFB51
:100540002CFA06F644BFB3460026202FA4BF5E4611
:100550004FF0000B5BEA060C08BF4FF0010B19EBE4
:100560000B09ABFB027C48EB0608C01B06FB02CC68
:100570000BFB03CC71EB0C01C1E70B460246414675
:100580004846BDE8F08B13B54FF000004FF0000176
:10059000AFF30080BDE81C407047032A40F2308072
:1005A00010F0030C00F0158011F8013BBCF1020FB4
:1005B000624498BF11F801CB00F8013B38BF11F835
:1005C000013BA2F1040298BF00F801CB38BF00F84C
:1005D000013B11F0030300F02580083AC0F00880C9
:1005E00051F8043B083A51F804CBA0E80810F5E7AD
:1005F000121D5CBF51F8043B40F8043BAFF3008090
:10060000D20724BF11F8013B11F801CB48BF11F804
:10061000012B24BF00F8013B00F801CB48BF00F8D4
:10062000012B704710B5203AC0F00B80B1E818508C
:10063000203AA0E81850B1E81850A0E81850BFF4CC
:10064000F5AF5FEA027C24BFB1E81850A0E818506B
:1006500044BF18C918C0BDE810405FEA827C24BFBF
:1006600051F8043B40F8043B08BF7047D20728BF4D
:1006700031F8023B48BF11F8012B28BF20F8023B9C
:1006800048BF00F8012B704702F0FF0343EA032242
:1006900042EA024200F002B84FF000020429C0F022
:1006A000128010F0030C00F01B80CCF1040CBCF1A4
:1006B000020F18BF00F8012BA8BF20F8022BA1EBF6
:1006C0000C0100F00DB85FEAC17C24BF00F8012BDB
:1006D00000F8012B48BF00F8012B70474FF00002D3
:1006E00000B5134694469646203922BFA0E80C5028
:1006F000A0E80C50B1F12001BFF4F7AF090728BF03
:10070000A0E80C5048BF0CC05DF804EB890028BF7E
:1007100040F8042B08BF704748BF20F8022B11F0A7
:10072000804F18BF00F8012B704770477047704723
:1007300010B500F00DF8006810BD10B5044600F0CB
:1007400007F8046010BD000000487047585C0024A2
:1007500000487047585C002470477546FFF7F4FF67
:10076000AE4605006946534620F00700854618B09E
:1007700020B5FFF789FEBDE820404FF000064FF09E
:1007800000074FF000084FF0000B21F00701AC46C6
:10079000ACE8C009ACE8C009ACE8C009ACE8C009E5
:1007A0008D46704710B50446AFF300802046BDE883
:1007B0001040FFF7F4BD000001491820ABBEFEE772
:1007C00026000200B7EE000A80ED000A9FED060A3F
:1007D00080ED010A9FED040A80ED020A9FED020AF6
:1007E00080ED030A704700000000000070B5064667
:1007F0000C46154695ED023AF0EE432A95ED013A86
:10080000B0EE432A95ED003AF0EE431A94ED023A29
:10081000B0EE431A94ED013AF0EE430A94ED003A3B
:10082000B0EE430A304609F00BF970BD2DE9F04FE8
:1008300009AC94E8F010DDE90E894FF0000A07E0FA
:1008400011F80AB0CAF1020E00F80EB00AF1010A5E
:10085000BAF1030F04DA11F80AB0BBF1000FEFD1BF
:1008600090F803B02BF0380B0BF1200B80F803B09D
:1008700090F803B062F3020B80F803B0B0F803B055
:1008800063F3891BA0F803B090F804B064F3850B00
:1008900080F804B0B0F807B067F3090BA0F807B010
:1008A000B0F808B06CF38C0BA0F808B0B0F809B041
:1008B00068F34F1BA0F809B0B0F804B065F38E1BC5
:1008C000A0F804B0B0F805B066F3CF1BA0F805B0EF
:1008D000B0F80CB069F38C0BA0F80CB0B0F80DE0D8
:1008E000DDF840B06BF34F1EA0F80DE0BDE8F08FCF
:1008F00010B501221146024803F0D8FF10BD0000D8
:100900000008025810B500220121024803F0CEFF72
:1009100010BD0000000802587047000010B5012209
:100920000821024803F0C2FF10BD00000008025871
:1009300010B500220821024803F0B8FF10BD0000E6
:1009400000080258704710B5044603E04FF47A706F
:1009500000F006F8201EA4F101018CB2F6D110BD02
:1009600070B5034600BF00BF0020002200BF4FF05B
:10097000E0267569C3EB031674014FF0E026B169F8
:1009800010E04FF0E026B06988420BD0884202D2D6
:100990000E1A324402E02E1A0E4432440146A2429C
:1009A00000D300E0EDE700BF70BD10B50024FFF7F5
:1009B000B3FFFFF7C7FF0BF061FD04430BF0F2FD3F
:1009C0000443204610BD00002DE9FC4105460E46BB
:1009D0001746002000900190FFF794FF922000F04E
:1009E000D1F806226946122000F0ACF8FFF780FF2C
:1009F0009DF80100000200B29DF8001040EA0104D9
:100A000000EE104AB8EEC00A4C48D0ED000A20EEC5
:100A1000200A86ED000A9DF80300000200B29DF84E
:100A2000021040EA010400EE104AB8EEC00A434842
:100A3000D0ED000A20EE200A86ED010A9DF805009F
:100A4000000200B29DF8041040EA010400EE104AD2
:100A5000B8EEC00A3948D0ED000A20EE200A86ED33
:100A6000020AFFF765FF08226946002000F06AF8D5
:100A7000FFF754FF9DF800000F2838D19DF80300C0
:100A8000000200B29DF8021040EA010400EE104A94
:100A9000B8EEC00A2A48D0ED000A20EE200A85ED03
:100AA000000A9DF80500000200B29DF8041040EA1B
:100AB000010400EE104AB8EEC00A2148D0ED000A49
:100AC00020EE200A85ED010A9DF80700000200B221
:100AD0009DF8061040EA010400EE104AB8EEC00A84
:100AE0001748D0ED000A20EE200A85ED020AFFF734
:100AF00009FFA22000F046F802226946222000F0F9
:100B000021F8FFF7F5FE9DF80000C0009DF80110E8
:100B100040EA6114B4F5806F02DBA4F5006004B212
:100B200000EE104AF8EEC00AB4EE001AB3EE070A5F
:100B300000EE810A87ED000ABDE8FC8198000024E0
:100B40009C00002470B506460C46154646F0800011
:100B500000F018F806E0552000F014F82070641C2E
:100B6000681EC5B2002DF6D170BD70B504460D46A5
:100B700044F0800000F006F8552000F003F82870DB
:100B800070BD000001B582B04FF47A70012301AA54
:100B900002A90090024806F02FFF9DF804000EBD48
:100BA0009C03002470B505460C462846FFF7EAFF73
:100BB0002046FFF7E7FF70BD00BFFEE710B5042138
:100BC000014807F0ABFC10BD44050024002001499A
:100BD000086070473818004040F2DC500149086056
:100BE00070470000381800401CB5694607480BF0F4
:100BF00093FE0446211FC8B2054A69460CF06AF903
:100C0000211FC8B200F05CF81CBD00006001002488
:100C1000AC09002410B5FFF7E7FF10BD1CB569460D
:100C200006480BF079FE0446E0B2054A69460CF02E
:100C3000FFF8A11EC8B200F043F81CBD000200245A
:100C4000E810002410B5FFF7E9FF10BD7047000061
:100C500008480BF08DFD64200DF02EFA08E00548E1
:100C60000BF07AFD03480BF05DFD01200CF0E8F974
:100C7000F5E70000580900244FF480600849088017
:100C80000848886000208880C88048800BF006FEF5
:100C900004E009F0F1F802200DF00EFAF9E7000087
:100CA000A40B00243C0C002470B504460D462246DB
:100CB0002946024800F0A2FC70BD0000A40B0024ED
:100CC00002490A68091D41F820207047580900248C
:100CD00010B5024801F0A4FC10BD0000C4070024B8
:100CE00010B5024801F09CFC10BD00004C07002428
:100CF00010B5024801F094FC10BD00003C0800242F
:100D00000146374A0868904249D0354A1832086887
:100D1000904244D0324A3032086890423FD0304A44
:100D20004832086890423AD02D4A603208689042B2
:100D300035D02B4A78320868904230D0284A903219
:100D4000086890422BD0264AA8320868904226D0E4
:100D5000244A0868904222D0224A183208689042F9
:100D60001DD0204A30320868904218D01D4A4832BF
:100D70000868904213D01B4A6032086890420ED037
:100D8000184A78320868904209D0164A90320868AA
:100D9000904204D0134AA8320868904201D1012041
:100DA00000E00020B0B10A78103A1823B2FBF3F04B
:100DB00000F007020C4B9A5CCA65032805D90A6843
:100DC0006FF30902121D8A6503E00A686FF30902D6
:100DD0008A6503E0086820F0FF008865886D704729
:100DE000100002401004024094F2000810B502689E
:100DF0002B4C0368A34222D0294C14340368A3422D
:100E00001DD0274C28340368A34218D0244C3C340E
:100E10000368A34213D0224C50340368A3420ED07F
:100E20001F4C64340368A34209D01D4C7834036816
:100E3000A34204D01A4C8C340368A34201D101238D
:100E400000E000238BB10378083B1424B3FBF4F1DA
:100E5000144B03EB81030366124B8033436601F0AE
:100E60001F040123A340836618E00378103B182475
:100E7000B3FBF4F10C4B9A4204D80B4BA83B9A42BB
:100E800000D30831094B03EB81030366074B803322
:100E9000436601F01F040123A340836610BD0000D8
:100EA0000854025800580258B80402400008024092
:100EB0000179A9B3082940D8204B02689A4222D070
:100EC0001E4B143302689A421DD01C4B2833026813
:100ED0009A4218D0194B3C3302689A4213D0174BF0
:100EE000503302689A420ED0144B643302689A421F
:100EF00009D0124B783302689A4204D00F4B8C33DE
:100F000002689A4201D1012200E000224AB14A1E41
:100F10000B4B03EB8202C266094A4032026708E0CB
:100F20000BE04A1E074B03EB8202C266054A4032C1
:100F300002674A1E012393404367704708540258D2
:100F40000059025800090240014600208A69D2B9BE
:100F50008A6A32B1012A0DD0022A03D0032A10D1A5
:100F60000EE000BFCA6A02F08072B2F1807F00D149
:100F7000012007E0CA6AB2F1C07F00D1012001E080
:100F800000E000BF36E08A69B2F5005F1BD18A6AD3
:100F900032B1012A07D0022A03D0032A11D10AE074
:100FA00000BF01200EE0CA6A02F08072B2F1807FB9
:100FB00000D1012006E0CA6AB2F1C07F00D1012051
:100FC00000E000BF16E08A6A32B1012A05D0022A89
:100FD00004D0032A0CD103E000BF00BF012008E0C9
:100FE000CA6A02F08072B2F1807F00D1012000E075
:100FF00000BF00BF70470000F0B5856D846D984F4D
:101000000668BE4270D0964F18370668BE426BD055
:10101000934F30370668BE4266D0914F4837066816
:10102000BE4261D08E4F60370668BE425CD08C4FA6
:1010300078370668BE4257D0894F90370668BE425F
:1010400052D0874FA8370668BE424DD0854F0668FC
:10105000BE4249D0834F18370668BE4244D0814F04
:1010600030370668BE423FD07E4F48370668BE42E2
:101070003AD07C4F60370668BE4235D0794F78371A
:101080000668BE4230D0774F90370668BE422BD0FC
:10109000744FA8370668BE4226D0734F0668BE421A
:1010A00022D0714F14370668BE421DD06E4F2837CC
:1010B0000668BE4218D06C4F3C370668BE4213D05B
:1010C000694F50370668BE420ED0674F64370668D6
:1010D000BE4209D0644F78370668BE4204D0624FE2
:1010E0008C370668BE4201D1012600E000263EB1E1
:1010F000D0E919767E60C66E16B1D0E91C767E60A6
:10110000574F0668BE4249D0554F18370668BE4251
:1011100044D0534F30370668BE423FD0504F483717
:101120000668BE423AD04E4F60370668BE4235D0A0
:101130004B4F78370668BE4230D0494F903706682B
:10114000BE422BD0464FA8370668BE4226D0454F38
:101150000668BE4222D0434F18370668BE421DD0F3
:10116000404F30370668BE4218D03E4F48370668B9
:10117000BE4213D03B4F60370668BE420ED0394F97
:1011800078370668BE4209D0364F90370668BE42AF
:1011900004D0344FA8370668BE4201D1012600E0D2
:1011A0000026DEB190F85C6006F01F073F26BE40C7
:1011B000AE600668366826F4802607683E600668DA
:1011C00073608668402E04D10668B2600668F160DC
:1011D00044E00668B1600668F2603FE0224F0668AE
:1011E000BE4222D0204F14370668BE421DD01E4F8B
:1011F00028370668BE4218D01B4F3C370668BE42EF
:1012000013D0194F50370668BE420ED0164F6437C0
:101210000668BE4209D0144F78370668BE4204D033
:10122000114F8C370668BE4201D1012600E000262E
:10123000A6B190F85C6006F01F070126BE4066600C
:10124000066873608668402E04D10668B26006683E
:10125000F16003E00668B1600668F260F0BD00006E
:10126000100002401004024008540258704772B641
:1012700000BFFEE710B5024802F064FD10BD00009B
:101280006001002410B5024802F05CFD10BD0000B2
:101290006001002410B5024802F054FD10BD0000AA
:1012A0000002002410B5024802F04CFD10BD000001
:1012B0000002002410B5024802F044FD10BD0000F9
:1012C000A002002410B5024802F03CFD10BD000051
:1012D000A002002410B501464A6B0868D0F88400CB
:1012E0004FF6FC74A04340EA82000C68C4F8840006
:1012F0000868D0F8840020F47F04088F44EA004096
:101300000C68C4F88400886B02440868D0F8880030
:101310004FF6FC74A04340EA82000C68C4F88800D1
:101320000868D0F8880020F4FE04888F44EA004062
:101330000C68C4F88800C86B02EB40020868D0F85B
:10134000A0004FF6FC74A04340EA82000C68C4F889
:10135000A0000868D0F8A00020F4FE044020405A05
:1013600044EA00400C68C4F8A000D1E9104004FB36
:1013700000220868D0F8B0004FF6FC74A04340EAA1
:1013800082000C68C4F8B0000868D0F8B00020F4FF
:10139000FE04B1F8480044EA00400C68C4F8B0000C
:1013A000D1E9124004FB00220868D0F8AC004FF6E7
:1013B000FC74A04340EA82000C68C4F8AC00D1E998
:1013C000144004FB00220868D0F8F0004FF6FC74CB
:1013D000A04340EA82000C68C4F8F0000868D0F826
:1013E000F00020F47C14B1F8580044EA00400C6886
:1013F000C4F8F000886D02EB40020868D0F8C00025
:101400004FF6FC74A04340EA82000C68C4F8C000A8
:101410000868D0F8C00020F47C14B1F85C0044EAFD
:1014200000400C68C4F8C0000868D0F8C00020F084
:101430007C5491F8600044EA00600C68C4F8C00075
:101440002A4C486B04EB8000C866CC6E886B04EBBA
:1014500080040C670C6FC86B04EBC0044C67D1E9C7
:10146000100460434C6F04EB80048C67D1E91204D4
:1014700060438C6F04EB8004CC67D1E914046043B3
:10148000CC6F04EB8004802044504458886D04EBFA
:10149000C004842044508C6EC86D6043842464581A
:1014A00004EB8004882044508C6E086E60438824CE
:1014B000645804EB80049020445040580C4CA042E7
:1014C00009D99831486840F020004860032001F8AD
:1014D0009809012010BDCB6E02E0002018601B1D92
:1014E000902040589842F8D80020F3E700AC004024
:1014F000FCD300402DE9F041054614461E46D1F8C4
:1015000004C0BCF1000F0AD1D1F810C0D1F8088096
:101510004CEA080CB1F800804CEA88430BE0D1F8A3
:1015200010C04CF0804CD1F808804CEA080CD1F87F
:1015300000804CEA080391F82080D1F81CC04CEAE6
:10154000086CD1F818804CEA080CD1F814804CEAE9
:10155000080CD1F80C804CEA0807D5F868C00CFBE1
:1015600006FCD5F8848008EB8C021360121D17600E
:10157000121D002019E000F1030C14F80CC04FEA12
:101580000C6800F1020C14F80CC048EA0C4800F199
:10159000010C14F80CC048EA0C2C14F800804CEA3A
:1015A000080CC2F800C0121D001DDFF81880D1F829
:1015B0000CC008EB1C4C9CF800C08445DBD8BDE88F
:1015C000F08100009CF2000800B9704743888268EF
:1015D000D1544288521C428043880288521E934252
:1015E00001DD00224280C288521CC280C28803886A
:1015F0009A4201DDC288C28000BFE6E7F0B5074627
:101600000C46164604B9F0BD002504E0615D38467D
:10161000FFF7DAFF6D1CB542F8DB00BFF3E70146C8
:1016200009B900207047C88888B1C888401EC880A2
:101630008B888868C25C8888401C88808B88088872
:10164000401E834201DD002088801046EAE700202A
:10165000E8E72DE9F04104460D4616461F4694ED95
:10166000001A21EE011AD4ED011A94ED012A01EEBF
:10167000821AF7EE001AB0EE002A52EE011AF0EECE
:10168000610A94ED001AD4ED031A21EE211AD4ED6B
:10169000011A94ED022A01EE821AF0EE001A21EEF0
:1016A000211AB0EE410A0AF0A7FD85ED000AD4ED3B
:1016B000010A94ED031A60EE810A94ED001AD4ED4C
:1016C000021A41EE610AB8EE001A60EE810AB0EE2D
:1016D000600A0AF0F5FC86ED000A94ED001A21EE8E
:1016E000011AD4ED031A94ED032A01EE821AF7EEE3
:1016F000001AB0EE002A52EE011AF0EE610A94EDE3
:10170000001AD4ED011A21EE211AD4ED021A94ED3B
:10171000032A01EE821AF0EE001A21EE211AB0EE31
:10172000410A0AF069FD87ED000ABDE8F08100007A
:1017300030B5034613B94FF6FF7030BD09E013F81A
:10174000014B82EA0400C0B2054D35F8100080EA72
:101750002222081EA1F10101F1D11046EDE700009F
:101760003EF4000830B5034605E013F8010B80EAAB
:1017700002040448025D081EA1F10101F5D11046E2
:1017800030BD00003DF300080148007F70470000B5
:101790005809002410B5044694ED110AF0EE400AF1
:1017A0009FED2F0A04F5987008F01EFC94ED141AB2
:1017B000F0EE410A94ED541AB0EE410A04F5DC70E3
:1017C00008F012FC94ED110ADFED260AB4EEE00AEF
:1017D000F1EE10FA42DB94ED110ADFED230AB4EECC
:1017E000E00AF1EE10FA39D894ED080AF0EE400A5A
:1017F0009FED1E0A04F1A80008F0F6FBB4F92400DE
:1018000001EE100AB8EEC11AF0EE410A94ED321A58
:10181000B0EE410A04F5BA7008F0E6FB94ED080A50
:10182000DFED130AB4EEE00AF1EE10FA16DB94EDE8
:10183000080ADFED100AB4EEE00AF1EE10FA0DD856
:101840000620607694ED830A84ED010A94ED840A03
:1018500084ED000A94ED840A84ED040A10BD0000B2
:101860007E9C5E4018365840E4026540CB8A2C408E
:101870006524264031F1324010B5044694ED841AB7
:10188000F0EE410A94ED001AB0EE410A04F59870AA
:1018900008F0AAFB94ED141AF0EE410A94ED541AE4
:1018A000B0EE410A04F1EC0008F09EFB94ED831ABF
:1018B000F0EE410A94ED011AB0EE410A04F1A800DD
:1018C00008F092FBB4F9240001EE100AB8EEC11A38
:1018D000F0EE410A94ED321AB0EE410A04F16400D0
:1018E00008F082FB10BD0000417E072908D19FED62
:1018F0003A0A80ED000A9FED380A80ED010A69E09E
:10190000017E012901D0017EF1BB4169B1F90610C8
:1019100000EE101AB8EEC00ADFED300A80EE201A91
:1019200090ED000A31EE000A4169B1F90C1000EEA9
:10193000901AF8EEE00A9FED2A1A00EE810A80ED77
:10194000000A4169B1F9041000EE101AB8EEC00A9D
:101950009FED221AC0EE010A90ED010A30EE800AD6
:101960004169B1F90E1000EE901AF8EEE00A9FED11
:101970001C1A00EE810A80ED010A90ED000AD0EDFC
:10198000040A9FED181A00E024E070EE810AB4EE1C
:10199000E00AF1EE10FA08DB90ED040ADFED110A1F
:1019A00030EE200A80ED000A14E090ED000AD0ED40
:1019B000040A9FED0C1A70EEC10AB4EEE00AF1EED3
:1019C00010FA07D890ED040ADFED060A30EE600A3F
:1019D00080ED000A70470000000000000040CE4586
:1019E00052491D39308C643E3EB504460AF0F4FF7E
:1019F0006061424A07CA8DE80700DFED410A9FEDAA
:101A0000410A694604F1640008F0DAFA9FED3E0AE3
:101A10008DED000A9FED3A0A8DED010A9FED3B0A1C
:101A20008DED020ADFED360A9FED390A694604F1B1
:101A3000A80008F0C5FA9FED360A8DED000A9FED6B
:101A4000300A8DED010A9FED2E0A8DED020ADFEDC1
:101A50002C0A9FED2C0A694604F1EC0008F0B0FA5C
:101A60009FED2C0A8DED000A9FED250A8DED010AF0
:101A70009FED290A8DED020ADFED210A9FED270A6D
:101A8000694604F5987008F09BFA9FED250A8DEDE4
:101A9000000AB7EE000A8DED010A9FED220A8DEDD6
:101AA000020ADFED210A9FED210A694604F5BA70AA
:101AB00008F086FA9FED1E0A8DED000AB7EE000AC7
:101AC0008DED010A9FED0E0A8DED020ADFED0F0A82
:101AD0009FED160A694604F5DC7008F071FA1548A6
:101AE000C4F8FC010C304FF4017108510838091F8B
:101AF00008510C304FF4027108513EBD30F300081C
:101B0000000000000060EA460000484300409C4599
:101B100000009643000070420000C8420000C84325
:101B200000002042CDCCCC3D0000FA4400401C46D1
:101B300000000243000900244169897A01290AD082
:101B4000022902D0032909D102E00221017608E02E
:101B50000121017605E00021017602E002210176F3
:101B600000BF00BF817E022911D1017E11B1017E2B
:101B700001290CD1072141760022026342654FF40E
:101B8000027109580A604FF4017109580A60017E18
:101B90008176704710B50446607E072803D1204641
:101BA000FFF7F8FD07E0207E012801D0207E10B964
:101BB0002046FFF761FE10BD017E022908D19FED8E
:101BC000110A80ED020A9FED0F0A80ED030A18E06A
:101BD000417E072908D190ED650A80ED020A90ED5B
:101BE000760A80ED030A0CE0017E012901D0017E16
:101BF00039B990ED210A80ED020A90ED430A80ED9B
:101C0000030A70470000000010B504464FF400704E
:101C1000005990ED000AB7EEC00A4FF40270005967
:101C200090ED001AB8EEC11B9FED3F2B01EE020BA9
:101C3000B7EEC00B84ED840AD4F8FC0190ED000AE5
:101C4000B7EEC00A4FF40170005990ED001AB8EEDB
:101C5000C11B9FED352B01EE020BB7EEC00B84EDDF
:101C6000830A606940883249A1F801006069007DFB
:101C700000F0010020B14FF42570A1F8010009E047
:101C80006069007D00F0020020B14FF66C502849D9
:101C9000A1F80100606900882549A1F80300606986
:101CA000007D00F0080020B14FF42570A1F803007A
:101CB00009E06069007D00F0040020B14FF66C502F
:101CC0001B49A1F80300606980881949A1F8050043
:101CD0006069808918B160698089A1F80500606930
:101CE000807A1349C871A5200870084608F02DFDB8
:101CF00001200BF0A5F9A08B00EE100AB8EE400A07
:101D0000DFED0C0A30EE600A10EE100A0A49C1F845
:101D100001000AF05BFE0849A1F80500A520087043
:101D2000084608F005FD10BD1F85EB51B81E19408F
:101D30005E000024CB8A2C40660000241CB51948A4
:101D4000FFF752FEC8200BF07BF92AE01548FFF799
:101D5000F3FE1448FFF758FF1248FFF7C5FD11487E
:101D6000FFF718FF0F48FFF727FF40F2FF10002191
:101D7000CDE900100B4890ED030ABDEEC00A10EE4D
:101D8000100A02B2074890ED020ABDEEC00A10EE3A
:101D9000100A01B20023044808F0FCFA03200BF0FB
:101DA0004FF9D3E790090024600100242DE9F041A8
:101DB000044602F081FD804614B90120BDE8F0819F
:101DC00094F83500022808D08020606500BF00200C
:101DD00084F8340000BF0120F0E7FE492068884203
:101DE00049D0FC4918312068884244D0F949303143
:101DF000206888423FD0F7494831206888423AD06D
:101E0000F44960312068884235D0F2497831206841
:101E1000884230D0EF499031206888422BD0ED497C
:101E2000A8312068884226D0EB492068884222D019
:101E3000E9491831206888421DD0E74930312068CF
:101E4000884218D0E44948312068884213D0E249DA
:101E50006031206888420ED0DF497831206888429E
:101E600009D0DD4990312068884204D0DA49A83190
:101E70002068884201D1012000E0002068B120687C
:101E8000006820F01E00216808602068406920F08A
:101E9000800021684861256806E02068006820F01D
:101EA0000E00216808602568CA492068884270D001
:101EB000C8491831206888426BD0C6493031206843
:101EC000884266D0C34948312068884261D0C14900
:101ED0006031206888425CD0BE49783120688842F1
:101EE00057D0BC4990312068884252D0B949A831B6
:101EF000206888424DD0B8492068884249D0B64908
:101F000018312068884244D0B34930312068884273
:101F10003FD0B1494831206888423AD0AE4960315B
:101F20002068884235D0AC4978312068884230D06A
:101F3000A9499031206888422BD0A749A831206850
:101F4000884226D0A5492068884222D0A34914316E
:101F5000206888421DD0A14928312068884218D0C5
:101F60009E493C312068884213D09C4950312068FA
:101F700088420ED0994964312068884209D0974937
:101F800078312068884204D094498C312068884296
:101F900001D1012000E0002028B1206E006820F46B
:101FA0008070216E08608B492068884249D0894939
:101FB00018312068884244D08649303120688842F0
:101FC0003FD084494831206888423AD08149603105
:101FD0002068884235D07F4978312068884230D0E7
:101FE0007C499031206888422BD07A49A8312068FA
:101FF000884226D078492068884222D07649183114
:10200000206888421DD0744930312068884218D039
:10201000714948312068884213D06F496031206887
:1020200088420ED06C4978312068884209D06A49CC
:1020300090312068884204D06749A83120688842DE
:1020400006D12068006820F001002168086005E0E2
:102050002068006820F001002168086011E002F0AB
:102060002BFCA0EB080005280BD92020606503207D
:1020700084F8350000BF002084F8340000BF012040
:102080009CE6286800F001000028E8D1514920684A
:10209000884249D04F4918312068884244D04D4980
:1020A0003031206888423FD04A4948312068884210
:1020B0003AD0484960312068884235D04549783166
:1020C0002068884230D043499031206888422BD024
:1020D0004049A8312068884226D03F49206888427C
:1020E00022D03D491831206888421DD03A4930310C
:1020F0002068884218D0384948312068884213D077
:1021000035496031206888420ED0334978312068E3
:10211000884209D0304990312068884204D02E4945
:10212000A8312068884201D1012000E0002040B1A0
:10213000A66D94F85C0000F01F013F208840B0605D
:1021400007E0A76D94F85C0000F01F0101208840B3
:10215000786020492068884276D01E49183120686E
:10216000884271D01B493031206888426CD01949AF
:1021700048312068884267D016496031206888421B
:1021800062D014497831206888425DD0114990317D
:102190002068884258D00F49A8312068884253D01F
:1021A0000D49206888424FD00B4918312068884279
:1021B0004AD0094930312068884245D00649483123
:1021C0002068884240D004496031206888423BD072
:1021D000014905E010000240100402400854025872
:1021E0007831206888422FD02549206888422BD03A
:1021F000234918312068884226D022492068884225
:1022000022D020491431206888421DD01D49283130
:102210002068884218D01B493C312068884213D07E
:1022200018495031206888420ED016496431206820
:10223000884209D0134978312068884204D0114976
:102240008C312068884201D1012000E0002068B173
:10225000D4E919104860E06E40B1E06E006820F4E7
:102260008070E16E0860D4E91C104860012084F899
:10227000350000BF002084F8340000BF00BF9DE59A
:10228000A00402400854025870B504460CB901205D
:1022900070BD94F83500022803D0802060650120CD
:1022A000F6E7DC492068884249D0DA4918312068CD
:1022B000884244D0D7493031206888423FD0D54940
:1022C0004831206888423AD0D2496031206888423B
:1022D00035D0D04978312068884230D0CD4990310E
:1022E000206888422BD0CB49A8312068884226D06C
:1022F000C9492068884222D0C749183120688842DD
:102300001DD0C54930312068884218D0C2494831B3
:102310002068884213D0C0496031206888420ED0BE
:10232000BD4978312068884209D0BB499031206886
:10233000884204D0B849A8312068884201D10120E0
:1023400000E00020F0B3042084F83500B149206893
:1023500088424BD0AF4918312068884246D0AD49F9
:1023600030312068884241D0AA49483120688842EB
:102370003CD0A84960312068884237D0A5497831DF
:102380002068884232D0A3499031206888422DD0FD
:10239000A049A8312068884228D09F4920688842F7
:1023A00024D09D491831206888421FD09A49303185
:1023B000206888421AD0984948312068884215D050
:1023C000954900E020E06031206888420ED09249B3
:1023D00078312068884209D08F499031206888423E
:1023E00004D08D49A8312068884206D12068006851
:1023F00020F001002168086009E12068006820F0F1
:1024000001002168086002E12068006820F00E00E9
:10241000216808607F492068884249D07D49183189
:102420002068884244D07B493031206888423FD0C0
:1024300078494831206888423AD07649603120682E
:10244000884235D0734978312068884230D071494C
:102450009031206888422BD06E49A831206888428C
:1024600026D06D492068884222D06B4918312068F7
:1024700088421DD0684930312068884218D06649AA
:1024800048312068884213D063496031206888420F
:102490000ED0614978312068884209D05E49903178
:1024A0002068884204D05C49A8312068884206D15F
:1024B0002068006820F001002168086005E02068BD
:1024C000006820F0010021680860524920688842B5
:1024D00070D050491831206888426BD04D49303156
:1024E0002068884266D04B4948312068884261D0D4
:1024F00048496031206888425CD04649783120687C
:10250000884257D0434990312068884252D041498F
:10251000A831206888424DD03F492068884249D080
:102520003D4918312068884244D03B493031206809
:1025300088423FD038494831206888423AD03649ED
:1025400060312068884235D033497831206888422C
:1025500030D031499031206888422BD02E49A831A3
:102560002068884226D02D492068884222D02B49F5
:102570001431206888421DD02849283120688842BB
:1025800018D026493C312068884213D02349503165
:10259000206888420ED0214964312068884209D0E1
:1025A0001E4978312068884204D01C498C3120684B
:1025B000884201D1012000E00020D8B1206E0068DF
:1025C00020F48070216E0860A56D94F85C0000F026
:1025D0001F01012088406860D4E919104860E06E4E
:1025E00040B1E06E006820F48070E16E0860D4E9CC
:1025F0001C104860012084F8350000BF002084F8DA
:10260000340000BF206D10B12046216D88470020A6
:102610003EE6000010000240100402400854025838
:102620002DE9F84F044600200090FE4800684FF462
:102630001651B0FBF1FAA66DD4F858803768D8F877
:102640000090F9492068884249D0F749183120683C
:10265000884244D0F4493031206888423FD0F24962
:102660004831206888423AD0EF496031206888427A
:1026700035D0ED4978312068884230D0EA49903130
:10268000206888422BD0E849A8312068884226D0AB
:10269000E6492068884222D0E449183120688842FF
:1026A0001DD0E24930312068884218D0DF494831D6
:1026B0002068884213D0DD496031206888420ED0FE
:1026C000DA4978312068884209D0D84990312068A9
:1026D000884204D0D549A8312068884201D1012020
:1026E00000E0002000287DD094F85C0000F01F017D
:1026F000082088403840002868D0CB4920688842AC
:1027000049D0C94918312068884244D0C64930317F
:10271000206888423FD0C4494831206888423AD076
:10272000C14960312068884235D0BF49783120687E
:10273000884230D0BC499031206888422BD0BA49B9
:10274000A8312068884226D0B8492068884222D023
:10275000B6491831206888421DD0B449303120680C
:10276000884218D0B14948312068884213D0AF4917
:102770006031206888420ED0AC49783120688842A8
:1027800009D0AA4990312068884204D0A749A831CD
:102790002068884204D12068006800F0040003E04B
:1027A0002068006800F0080080B12068006820F010
:1027B00004002168086094F85C0000F01F01082004
:1027C0008840B060606D40F00100606594F85C0086
:1027D00000F01F01012088403840E8B3924920688A
:1027E000884200E0B7E24BD08F4918312068884218
:1027F00046D08D4930312068884241D08A494831DD
:10280000206888423CD0884960312068884237D0AF
:10281000854978312068884232D0834990312068D8
:1028200088422DD08049A8312068884228D07F492D
:102830002068884224D07D491831206888421FD002
:102840007A493031206888421AD078494831206866
:10285000884215D0754900E026E060312068884242
:102860000ED0724978312068884209D06F49903182
:102870002068884204D06D49A8312068884204D17C
:102880002068406900F0800002E0206800680020B5
:1028900050B194F85C0000F01F0101208840B06046
:1028A000606D40F00200606594F85C0000F01F016C
:1028B000042088403840E8B35B49206888424BD008
:1028C000594918312068884246D05749303120682C
:1028D000884241D054494831206888423CD052490E
:1028E00060312068884237D04F497831206888426B
:1028F00032D04D499031206888422DD04A49A831C4
:102900002068884228D049492068884224D0474915
:102910001831206888421FD04449303120688842ED
:102920001AD0424948312068884215D03F49603169
:10293000206800E024E088420ED03C4978312068CD
:10294000884209D0394990312068884204D03749FB
:10295000A8312068884204D12068006800F0020095
:1029600002E020680068002050B194F85C0000F09C
:102970001F0104208840B060606D40F00400606575
:1029800094F85C0000F01F01102088403840E8B344
:1029900025492068884251D023491831206888424F
:1029A0004CD0214930312068884247D01E494831F7
:1029B0002068884242D01C496031206888423DD05E
:1029C000194978312068884238D0174990312068F9
:1029D000884233D01449A831206888422ED0134948
:1029E000206888422AD0114918312068884225D0B1
:1029F0000E4930312068884220D00C494831206887
:102A000088421BD009496031206800E04DE08842CF
:102A100014D006497831206888420FD0034990319C
:102A2000206805E034000024100002401004024039
:102A3000884203D0FE492068884204D1206800689B
:102A400000F0080003E02068006800F0040060B3B4
:102A500094F85C0000F01F0110208840B0602068EE
:102A6000006800F4802080B12068006800F4002035
:102A700028B9206CC8B12046216C884715E0A06CAD
:102A800098B12046A16C88470FE02068006800F4E8
:102A9000807028B92068006820F00800216808606C
:102AA000206C10B12046216C884794F85C0000F03F
:102AB0001F0120208840384000287DD0DD49206853
:102AC000884249D0DB4918312068884244D0D9492E
:102AD0003031206888423FD0D6494831206888424A
:102AE0003AD0D44960312068884235D0D149783114
:102AF0002068884230D0CF499031206888422BD05E
:102B0000CC49A8312068884226D0C949A839206814
:102B1000884221D0C6499039206888421CD0C449D7
:102B200078392068884217D0C149603920688842C6
:102B300012D0BF494839206888420DD0BC4930398D
:102B40002068884208D0BA4918392068884203D0E2
:102B5000B7492068884204D12068006800F010005E
:102B600003E02068006800F0020028B394F85C00DD
:102B700000F01F0120208840B06094F83500042840
:102B80002DD12068006820F01600216808602068B8
:102B9000406920F0800021684861206C08B9A06C71
:102BA00028B12068006820F008002168086094F8C7
:102BB0005C0000F01F0100E03FE03F208840B06073
:102BC000012084F8350000BF002084F8340000BFE5
:102BD000206D10B12046216D8847BDE8F88F206830
:102BE000006800F4802080B12068006800F40020B4
:102BF00028B9606C08B32046616C88471DE0E06B23
:102C0000D8B12046E16B884717E02068006800F4DF
:102C1000807068B92068006820F0100021680860A2
:102C2000012084F8350000BF002084F8340000BF84
:102C3000E06B10B12046E16B8847606D00287AD0C8
:102C4000606D00F00100E8B3042084F83500794994
:102C5000206888424BD0774918312068884246D096
:102C6000744930312068884241D072494831206827
:102C700088423CD06F4960312068884237D06D4926
:102C800078312068884232D06A4990312068884281
:102C90002DD06849A8312068884228D06449A839D5
:102CA0002068884223D062499039206888421ED02B
:102CB0005F4978392068884219D05D4960392068B9
:102CC000884200E040E012D05949483920688842E3
:102CD0000DD0574930392068884208D054491839F6
:102CE0002068884203D052492068884206D1206873
:102CF000006820F001002168086005E02068006895
:102D000020F001002168086000BF0098401C00907E
:102D1000504500D905E02068006800F00100002857
:102D2000F3D100BF2068006800F0010020B103204B
:102D300084F8350003E00DE0012084F8350000BF81
:102D4000002084F8340000BFE06C002802D0204648
:102D5000E16C8847D9E138492068884222D0364959
:102D60001431206888421DD03349283120688842B8
:102D700018D031493C312068884213D02E49503157
:102D8000206888420ED02C4964312068884209D0DE
:102D9000294978312068884204D027498C3120683D
:102DA000884201D1012000E000200028D2D0206814
:102DB000056894F85C0000F01F010420884000EAD8
:102DC0000900D8B305F00400C0B394F85C0000F02B
:102DD0001F0104208840C8F8040005F4004080B1B9
:102DE00005F4803030B9A06C0028B3D02046A16C27
:102DF00088478AE1206C0028ACD02046216C8847A7
:102E000083E105F02000E8BB0A492068884253D0DE
:102E100008491831206888424ED006493031206870
:102E2000884249D0034948312068884244D006E0AE
:102E3000B804024010000240085402584FE0B44960
:102E400060312068884237D0B149783120688842A3
:102E500032D0AF499031206888422DD0AC49A8319A
:102E60002068884228D0AB492068884224D0A949EC
:102E70001831206888421FD0A64930312068884226
:102E80001AD000E025E0A34948312068884213D0D9
:102E9000A0496031206888420ED09E497831206870
:102EA000884209D09B4990312068884204D09949D2
:102EB000A8312068884206D12068006820F0080008
:102EC0002168086005E02068006820F0040021689F
:102ED0000860206C10B32046216C884715E194F8F7
:102EE0005C0000F01F010220884000EA0900E8B3FE
:102EF00005F00200D0B394F85C0000F01F0102203E
:102F00008840C8F8040005F4004070B105F4803032
:102F100028B9606C10B12046616C8847F5E0E06B21
:102F2000F0B32046E16B8847EFE005F02000C0BB1E
:102F30007749206888424ED0754918312068884208
:102F400049D0734930312068884244D070494831B3
:102F5000206888423FD06E496031206888423AD06C
:102F60006B4978312068884235D000E04EE06849EE
:102F70009031206888422ED06549A8312068884267
:102F800029D064492068884225D0624918312068D8
:102F9000884220D05F493031206888421BD001E050
:102FA0006EE02DE05B4948312068884213D05949D2
:102FB0006031206888420ED05649783120688842B6
:102FC00009D0544990312068884204D05149A83131
:102FD0002068884206D12068006820F0140021682B
:102FE000086005E02068006820F00A002168086099
:102FF000012084F8350000BF002084F8340000BFB1
:10300000E06BE8B32046E16B88477EE094F85C0013
:1030100000F01F010820884000EA090080B305F095
:10302000080068B33A49206888424BD038491831C3
:103030002068884246D0364930312068884241D0E5
:1030400033494831206888423CD03149603120689A
:10305000884237D02E4978312068884232D02C49B6
:103060009031206888422DD02949A83120688842B3
:1030700028D028492068884224D02649183100E009
:1030800043E0206888421DD02249303120688842C0
:1030900018D0204948312068884213D01D4960313A
:1030A000206888420ED01B4978312068884209D0B8
:1030B000184990312068884204D01649A831206808
:1030C000884206D12068006820F01C002168086052
:1030D00005E02068006820F00E002168086094F880
:1030E0005C0000F01F0101208840C8F804000120A6
:1030F000606584F8350000BF002084F8340000BF0C
:10310000E06C10B12046E16C884700BF65E5000027
:1031100010000240100402402DE9F041044601F085
:10312000CBFB804614B90120BDE8F081FE49206840
:10313000884249D0FC4918312068884244D0FA4975
:103140003031206888423FD0F749483120688842B2
:103150003AD0F54960312068884235D0F24978315B
:103160002068884230D0F0499031206888422BD0C6
:10317000ED49A8312068884226D0EC492068884271
:1031800022D0EA491831206888421DD0E749303101
:103190002068884218D0E54948312068884213D019
:1031A000E2496031206888420ED0E04978312068D9
:1031B000884209D0DD4990312068884204D0DB493B
:1031C000A8312068884201D1012000E000200028B9
:1031D00073D0606A00B100BF022084F8350000BFE0
:1031E000002084F8340000BFCF492068884249D0CD
:1031F000CD4918312068884244D0CB49303120680D
:1032000088423FD0C8494831206888423AD0C649F0
:1032100060312068884235D0C349783120688842BF
:1032200030D0C1499031206888422BD0BE49A831A6
:103230002068884226D0BD492068884222D0BB49F8
:103240001831206888421DD0B84930312068884242
:1032500018D0B64948312068884213D0B34960314C
:10326000206888420ED0B14978312068884209D060
:10327000AE4990312068884204D0AC49A83120681A
:10328000884206D12068006820F0010021680860AB
:1032900005E02068006820F00100216808600DE06A
:1032A00001F00AFBA0EB0800052807D92020606583
:1032B000032084F83500012036E769E020680068C3
:1032C00000F001000028EBD120680568984805400F
:1032D000D4E9020108432169084361690843A169EF
:1032E0000843E1690843216A08430543606A0428EA
:1032F00003D1D4E90B01084305436068292802D3B0
:1033000060682E2817D960683F2802D36068422879
:1033100011D96068472802D3606848280BD96068D3
:103320004F2802D36068522805D96068742804D3F6
:103330006068772801D8012000E0002008B145F43A
:103340008015206805602068456925F00705606ADA
:103350000543606A04280DD1A06A0543E06A48B1BC
:103360002046FDF7F1FD28B140206065012084F87A
:103370003500D9E6206845612046FDF7C1FC0646C8
:1033800094F85C0000F01F013F208840B0609EE090
:1033900068492068884222D06649143120688842F2
:1033A0001DD0644928312068884218D061493C31D9
:1033B0002068884213D05F495031206888420ED07F
:1033C0005C4964312068884209D05A4978312068C4
:1033D000884204D057498C312068884201D10120AD
:1033E00000E00020E0B353492068884222D05149D0
:1033F0001431206888421DD04E4928312068884207
:1034000018D04C493C312068884213D0494950318A
:10341000206888420ED0474964312068884209D02C
:10342000444978312068884204D042498C31206870
:10343000884201D1012000E0002000B100BF02203D
:1034400084F8350000BF002084F8340000BF2068F5
:10345000056839480540A068402802D1102106E0DF
:103460002EE0A068802801D1C10100E00021E068C1
:1034700041EAD001206941EAD001606941EAD00106
:10348000A06941EAD001E06941EAD001206A41EA3D
:10349000101005432068056026492068401A142151
:1034A000B0FBF1F08000E0652046FDF729FC0746FF
:1034B00094F85C0000F01F0101208840786006E06D
:1034C00040206065032084F8350001202CE6164971
:1034D000206888427AD0144918312068884275D013
:1034E000114930312068884270D00F494831206836
:1034F00088426BD00C4960312068884266D00A4906
:1035000078312068884261D007499031206888422C
:103510005CD00549A8312068884257D0034920680B
:10352000884253D0014909E01000024010040240D3
:103530003F8010FE085402580F00FEFF183120682B
:10354000884243D03749206888423FD035491831F6
:10355000206888423AD0334930312068884235D0DB
:10356000304948312068884230D02E496031206887
:1035700088422BD02B4978312068884226D02A49AE
:103580002068884222D028491431206888421DD002
:10359000254928312068884218D023493C312068C9
:1035A000884213D020495031206888420ED01E49ED
:1035B00064312068884209D01B49783120688842EC
:1035C00004D019498C312068884201D1012000E0E3
:1035D000002000B32046FDF709FCA068802801D137
:1035E000002060602079216E0860D4E919104860DD
:1035F000606860B16068082809D82046FDF758FC6B
:103600000020E16E0860D4E91C10486003E000204F
:10361000E0662067606700206065012084F835005F
:10362000002081E540040240085402582DE9F04191
:1036300004460D4616461F464FF0000814B90120F7
:10364000BDE8F08100BF94F83400012801D10220C8
:10365000F6E7012084F8340000BF94F83500012813
:103660007ED1022084F8350000206065E44920689E
:10367000884249D0E24918312068884244D0E04964
:103680003031206888423FD0DD4948312068884287
:103690003AD0DB4960312068884235D0D84978314A
:1036A0002068884230D0D6499031206888422BD09B
:1036B000D349A8312068884226D0D2492068884260
:1036C00022D0D0491831206888421DD0CD493031F0
:1036D0002068884218D0CB4948312068884213D0EE
:1036E000C8496031206888420ED0C64978312068C8
:1036F000884209D0C34990312068884204D0C1492A
:10370000A8312068884206D12068006820F00100B6
:103710002168086005E02068006820F00100216849
:1037200008603B46324629462046FDF765FCB44911
:10373000206888424BD0B24918312068884246D070
:10374000AF4930312068884241D0AD4948312068C6
:1037500088423CD0AA4960312068884237D000E0D6
:1037600042E1A74978312068884230D0A44990319D
:10377000206888422BD0A249A8312068884226D0F0
:10378000A0492068884222D09E491831206888428A
:103790001DD09C4930312068884218D09949483161
:1037A0002068884213D097496031206888420ED043
:1037B000944978312068884209D092499031206834
:1037C000884204D08F49A8312068884201D1012065
:1037D00000E0002080B12068006820F01E0040F06A
:1037E000160021680860206CB0B12068006840F0C5
:1037F0000800216808600FE02068006820F00E00D3
:1038000040F00A0021680860206C28B12068006838
:1038100040F004002168086079492068884270D02F
:1038200077491831206888426BD07549303120685B
:10383000884266D0724948312068884261D0704918
:103840006031206888425CD06D49783120688842B8
:1038500057D06B4990312068884252D06849A831CE
:10386000206888424DD067492068884249D0654920
:1038700018312068884244D062493031206888423B
:103880003FD060494831206888423AD05D49603174
:103890002068884235D05B4978312068884230D032
:1038A00058499031206888422BD05649A831206869
:1038B000884226D054492068884222D05249143187
:1038C000206888421DD0504928312068884218D08D
:1038D0004D493C312068884213D04B495031206813
:1038E00088420ED0484964312068884209D0464950
:1038F00078312068884204D043498C31206888425E
:1039000001D1012000E0002090B1206E006800F499
:10391000803028B1206E006840F48070216E08600D
:10392000E06E28B1E06E006840F48070E16E0860DF
:1039300033492068884249D031491831206888428B
:1039400044D02F493031206888423FD02C4948313B
:10395000206888423AD02A4960312068884235D0B0
:10396000274978312068884230D025499031206835
:1039700088422BD02249A8312068884226D021498C
:103980002068884222D01F491831206888421DD003
:103990001C4930312068884218D01A4948312068C3
:1039A000884213D017496031206888420ED01549EB
:1039B00078312068884209D01249903120688842C5
:1039C00004D01049A8312068884206D120680068D8
:1039D00040F001002168086010E02068006840F0B5
:1039E00001002168086009E04FF40060606500BFD5
:1039F000002084F8340000BF4FF0010840461FE665
:103A000010000240100402400854025830B503462A
:103A100093F89840012C01D0022C3ED11868806D9B
:103A2000084030B91868C06D40F001001D68E865B5
:103A30000EE01868806D0840884206D11868C06D95
:103A400040F002001D68E86502E003201D68E8659B
:103A500001F4007030B11868D0F8E00010431D6820
:103A6000C5F8E00001F4806030B11868D0F8E400D7
:103A700010431D68C5F8E40000BF1868406D0B4D89
:103A80000D4028431D6868650948006840EA917048
:103A9000074D286000BF002030BDD3F89C0040F0E7
:103AA0000200C3F89C000120F6E70000FFFFCF3FB3
:103AB00014A800402DE9F04104460E4617467068F0
:103AC00000B900E000BF94F89800022832D12068C5
:103AD000D0F8C00000F07C5040B9D4F89C0040F011
:103AE0002000C4F89C000120BDE8F0812068D0F8D7
:103AF000C40000F4001038B1D4F89C0040F4007009
:103B0000C4F89C000120EFE72068D0F8C400C0F39F
:103B100004452B463A4631462046FDF7EBFC012092
:103B2000A8402168C1F8D0000120A840C4F8940042
:103B30000020D9E7D4F89C0040F00800C4F89C00AD
:103B40000120D1E770477047704700002DE9F0432E
:103B500004460D469C46002394F89880B8F1020F65
:103B600074D1402D38D12068D0F8A00000F4FE00B8
:103B700040B9D4F89C0040F02000C4F89C0001201B
:103B8000BDE8F0832068D0F8A40000F07F0038B9C9
:103B9000D4F89C0040F48070C4F89C000120EFE74A
:103BA0002068D0F8A400C0F3006040B12068D0F8CD
:103BB000A0004FF00049B9EBD07F00D1012320686D
:103BC000D0F8A400C0F305200344606C5843D4F837
:103BD000749009EB80014BE0412D38D12068D0F87A
:103BE000B00000F4FE0038B9D4F89C0040F020008A
:103BF000C4F89C000120C3E72068D0F8B40000F0AE
:103C00007F0038B9D4F89C0040F48070C4F89C0060
:103C10000120B5E72068D0F8B400C0F3006040B1DF
:103C20002068D0F8B0004FF00049B9EBD07F00D148
:103C300001232068D0F8B400C0F305200344E06CF1
:103C40005843D4F8789009EB800111E06EE0206DC4
:103C5000A84207D8D4F89C0040F02000C4F89C008B
:103C600001208DE7606D6843D4F87C9009EB8001FA
:103C7000086800F080405060506820B90868C0F3C0
:103C80008A40106003E0086820F060401060086817
:103C900000F000509060086800F000401061091DBD
:103CA000088880B2D061086800F47020D06008688D
:103CB00000F480105061086800F4001090610868FA
:103CC000C0F3066010620868C00F5062091D0F46FD
:103CD000002603E0B85D0CF80600761CDFF85C9067
:103CE000D06809EB10400078B042F3D8402D03D1E2
:103CF0002068C0F8A83017E0412D03D12068C0F833
:103D0000B83011E0202D06D20120A840D4F8009050
:103D1000C9F8980008E005F01F09012000FA09F031
:103D2000D4F80090C9F89C00002029E7D4F89C0042
:103D300040F00800C4F89C00012021E79CF2000834
:103D4000704700002DE9F04F8DB00446EF48006841
:103D50008707EE48001D006807EA80772068006D3D
:103D600000F470482068406D00EA08082068006D83
:103D700000F00F092068406D00EA09092068006D15
:103D800000F0F00A2068406D00EA0A0A2068006D21
:103D900000F0715B2068406D00EA0B0B2068006D3D
:103DA00000F060700C902068406D0C9908400C90F9
:103DB0002068456D2068066DC5F3002070B1C6F31C
:103DC000002058B100BF4FF48070216808650020C2
:103DD000CE49086000BF2046FFF7B2FFC5F3802040
:103DE000C8B1C6F38020B0B12068D0F8DC000A90DA
:103DF0002068D0F8E4000A9908400A9000BF4FF408
:103E00008060216808650020C049086000BF204626
:103E10000A9900F04EFC67B100BFBD4838402168E8
:103E20000865B80FB949086000BF39462046FFF75A
:103E300089FEB8F1000F0ED000BFB54808EA0000B7
:103E4000216808654FEA9870B049086000BF414694
:103E5000204600F030FCB9F1000F0ED000BFAC4896
:103E600009EA0000216808654FEA9970A7490860CF
:103E700000BF4946204600F0DFFBBAF1000F0ED02C
:103E800000BFA3480AEA0000216808654FEA9A705B
:103E90009E49086000BF5146204600F0E9FBC5F38B
:103EA000C02070B1C6F3C02058B100BF4FF400600D
:103EB0002168086500209549086000BF204600F091
:103EC000FBFBC5F34020C8B1C6F34020B0B1206869
:103ED000D0F8D8000B902068D0F8E0000B9908408B
:103EE0000B9000BF4FF400702168086500208749DF
:103EF000086000BF20460B9900F0DCFBC5F3C04012
:103F000070B1C6F3C04058B100BF4FF40020216823
:103F1000086500207D49086000BF204600F08AFB4C
:103F2000C5F3004070B1C6F3004058B100BF4FF474
:103F300080302168086500207449086000BF204671
:103F400000F0B6FBC5F3804070B1C6F3804058B1B5
:103F500000BF4FF480202168086500206B4908608D
:103F600000BF204600F0A3FBC5F3404088B1C6F374
:103F7000404070B100BF4FF4003021680865002058
:103F80006249086000BFD4F89C0040F08000C4F88B
:103F90009C000C9870B100BF5D490C9808402168E6
:103FA00008650C98800F5949086000BF20460C999D
:103FB000FFF7CAFDBBF1000F10D000BF54480BEA59
:103FC0000000216808654FEA9B705049086000BFF7
:103FD000D4F89C0040EA0B00C4F89C004D492068CE
:103FE00088427DD16068806800F00300002877D0A7
:103FF0006068006A00F00F0009906068406A0999E3
:10400000084009906068006A00F03000089060681D
:10401000406A0899084008906068006A00F4C0701F
:1040200007906068406A0799084007906068006AD6
:1040300000F4FC4006906068406A069908400690CB
:104040006068006A00F4F02005906068406A059995
:10405000084005906068406A02906068006A0190BC
:10406000099830B10998616808622046099900F002
:104070001BFB089830B108986168086220460899CF
:1040800000F014FB0298C0F38010A0B10198C0F3B7
:10409000801080B16068C06B000C04906068C06BD9
:1040A00000F03F0003904020616808622046DDE98F
:1040B000032100F0FAFA079830B1079861680862A6
:1040C0002046079900F0EFFA069840B1069861681B
:1040D0000862D4F89C0006990843C4F89C0000E0EC
:1040E0000AE0059840B1059861680862D4F89C0020
:1040F00005990843C4F89C00D4F89C0010B12046F0
:10410000FFF721FD0DB0BDE8F08F000010A80040C2
:10411000FFFFCF3F00A0004070B594B004464C2292
:10412000B34901A8FCF77EFA14B9012014B070BDA0
:10413000B0492068884203D1206800F58070606033
:10414000A068B0F5407F00D100BF206C00B100BF77
:10415000A06C00B100BF206D00B100BF206E00B1A7
:1041600000BFD4E91710084400B100BF94F89800CC
:1041700028B9002084F89900204600F03DF9206815
:10418000806920F010002168886100F095FB0546E9
:104190000EE000F091FB401B0A2809D998346068B2
:1041A00040F001006060032004F898090120BDE799
:1041B0002068806900F008000828EAD0206880693B
:1041C00040F001002168886100F076FB05460EE0B2
:1041D00000F072FB401B0A2809D99834606840F04F
:1041E00001006060032004F8980901209EE7206820
:1041F000806900F001000028EAD02068806940F062
:10420000020021688861207C012806D1206880692D
:1042100020F040002168886105E02068806940F056
:10422000400021688861607C012806D1206880698F
:1042300040F480402168886105E02068806920F4AE
:10424000804021688861A07C012806D120688069AF
:1042500020F480502168886105E02068806940F47E
:104260008050216888612068806920F44070A168CE
:104270000843216888612068806920F0A4002168D3
:1042800088612068006920F0100021680861E068FA
:10429000012806D12068806940F004002168886107
:1042A00020E0E068F0B1E068022815D0206880695D
:1042B00040F08000216888612068006940F01000AB
:1042C00021680861E06803280CD12068806940F00B
:1042D00020002168886105E02068806940F02000A6
:1042E00021688861207E401E4106E069401E41EA47
:1042F0000020216A491E0843A18A491E40EA014064
:104300002168C861A068B0F5407F0FD1A06A401E47
:10431000E16A491E40EA0121206B401E41EA00117A
:10432000A08C401E41EA00402168C860206E38B170
:104330002068D0F8C000616E08432168C1F8C00051
:10434000D4E91710084460B12068D0F8C80020F004
:10435000070001AAA16E52F8211008432168C1F894
:10436000C800206C60B12068D0F8BC0020F00700C5
:1043700001AA616C52F8211008432168C1F8BC0001
:10438000A06C68B12068D0F8BC0020F0700101AAD0
:10439000E06C52F8200041EA00102168C1F8BC002E
:1043A000206D68B12068D0F8BC0020F4E06101AA5B
:1043B000606D52F8200041EA00202168C1F8BC007D
:1043C0000C492068884205D16068806820F00300AD
:1043D00061688860002044F8940FA060012020717B
:1043E000943C2046FCF776FF064630469EE60000E9
:1043F000ACF2000800A0004010B5B6B0044614218D
:1044000030A8FCF76BF9B82102A8FCF767F98249DC
:104410002068884252D14FF400410020CDE90210BB
:1044200048031D9002A801F09DFA08B1FCF71FFF98
:104430007A480068401C79490860084600680128ED
:104440000DD100BF7648006840F480707449086060
:104450000846006800F48070019000BF00BF00BFF4
:104460006F480C38006840F008006D490C3908604E
:104470000846006800F00800019000BF00BF03205C
:104480003090022031900020329003203390092098
:10449000349030A9634800F011F900220121132063
:1044A00000F0C2FA132000F0ABFA0022012115201F
:1044B00000F0BAFA152000F0A3FAABE05A492068E0
:1044C000884251D14FF400410020CDE90210480349
:1044D0001D9002A801F046FA08B1FCF7C8FE4F484B
:1044E0000068401C4D4908600846006801280DD14D
:1044F00000BF4B48006840F4807049490860084696
:10450000006800F48070019000BF00BF00BF444805
:104510000C38006840F0020041490C390860084638
:10452000006800F00200019000BF00BF60203090E2
:10453000022031900020329033900920349030A92D
:104540003A4800F0BBF800220121142000F06CFA78
:10455000142000F055FA00220121162000F064FA20
:10456000162000F04DFA55E031492068884251D1BB
:104570004FF400410020CDE9021048031D9002A82D
:1045800001F0F0F908B1FCF772FE24480068401C05
:10459000224908600846006801280DD100BF204864
:1045A000006840F480701E4908600846006800F406
:1045B0008070019000BF00BF00BF19480C38006830
:1045C00040F0080016490C3908600846006800F001
:1045D0000800019000BF00BF4FF44050309002200F
:1045E00031900020329033900520349030A90D484E
:1045F00000F064F8002201219F2000F015FA9F20AE
:1046000000F0FEF900220121A02000F00DFAA02008
:1046100000F0F6F936B010BD00A0004024000024E0
:10462000EC440258000C025800A400400004025858
:1046300000D400407047000070B504460D4605F0F8
:10464000010070B10748844201D1FCF7E3FA064843
:10465000844201D1FCF7F6FA0448844201D1FCF708
:10466000F5FA70BD6001002400020024A0020024BD
:104670007047014691F8980001280CD1022081F87A
:1046800098000868806920F001000A6890610020A5
:10469000C1F89C007047D1F89C0040F00400C1F8BC
:1046A0009C000120F6E770477047704770477047DD
:1046B000704770477047704770470000F8B5024672
:1046C0000B4600216D4DD2E001278F401E6806EA9F
:1046D0000704002C72D01E7906F00306012E04D0C8
:1046E0001E7906F00306022E13D190684F000326B0
:1046F000BE40B0434F00DE68BE403043906050681B
:1047000001268E40B0431E79C6F300168E4030431A
:1047100050601E7906F00306032E09D0D0684F00C2
:104720000326BE40B0434F009E68BE403043D06079
:104730001E7906F00306022E13D1CF0802F12006DF
:1047400056F827004E07F70E0F26BE40B0434F071E
:10475000FF0E1E69BE403043CF0802F1200646F826
:10476000270010684F000326BE40B0431E7906F0B4
:1047700003064F00BE40304310605E6806F44036CA
:10478000002E73D000BF3E4E366846F002063C4F06
:104790003E603E46366806F00206009600BF00BF47
:1047A000384E8F0856F827008E07370F0F26BE4069
:1047B000B043354EB24202D1002629E056E0334ED6
:1047C000B24201D1012623E0314EB24201D102268C
:1047D0001EE0304EB24201D1032619E02E4EB24205
:1047E00001D1042614E02D4EB24201D105260FE07E
:1047F0002B4EB24201D106260AE02A4EB24201D126
:10480000072605E0284EB24201D1092600E00A261B
:104810008F073F0FBE4030431A4E8F0846F82700DF
:104820004FF0B0463068A0435E6806F4801606B1CB
:1048300020434FF0B04630607068A0435E6806F4D5
:10484000001606B120434FF0B04670606868A04380
:104850005E6806F4003606B1204368602868A0430D
:104860005E6806F4803606B120432860491C1E6845
:10487000CE40002E7FF428AFF8BD00008000005825
:10488000F44402580804005800000258000402587A
:1048900000080258000C0258001002580014025878
:1048A00000180258001C0258002402580AB1816105
:1048B00001E00B0483617047014800687047000005
:1048C0002800002403480068034909780844014986
:1048D00008607047280000243000002410B5032031
:1048E00000F0E0F802F0BEF810490968C1F30321B6
:1048F0000F4A515C01F01F0120FA01F40B480068D7
:1049000000F00F001146085C00F01F0024FA00F0D0
:1049100008490860084804600F2000F00FF808B14B
:10492000012010BD00F054F80020FAE718440258A6
:1049300020F30008380000243400002470B58AB049
:104940000446102C0AD200222146A12000F06CF867
:10495000A12000F055F81948046002E001200AB0D7
:1049600070BD00BF1648006840F0807014490860B0
:104970000846006800F08070009000BF00BF01A9E9
:1049800002A801F0EFFF02F05BF845000D48B5FB0F
:10499000F0F0461E0C480D49086040F2E7310B4824
:1049A000C160466000210161816003F08FFA18B98F
:1049B000064803F0C3FAD2E70120D0E72C00002418
:1049C000EC44025840420F0000E00040B4080024CC
:1049D00008B500BF0948006840F0020007490860B8
:1049E0000846006800F00200009000BF00BF0022EF
:1049F0000F21901E00F018F808BD0000F444025882
:104A00000146084600280DDB00BF00BF00F01F0371
:104A100001229A4043099B0003F1E023C3F80021DF
:104A200000BF00BF00BF70472DE9F05F80460D4614
:104A3000164607F025FB074639462A46334601F05D
:104A40000700C0F1070ABAF1040F02D94FF0040AB7
:104A500001E0C0F1070AD14600F1040ABAF1070FDC
:104A600002D24FF0000A01E0A0F1030AD4464FF051
:104A7000010A0AFA09FAAAF1010A0AEA020A0AFA7A
:104A80000CFA4FF0010B0BFA0CFBABF1010B0BEA2C
:104A9000030B4AEA0B042146404607F0F9FABDE849
:104AA000F09F000000BF00F00702064B19684FF6A8
:104AB000FF031940044B0B4343EA0221014B1960E9
:104AC00000BF70470CED00E00000FA052DE9F04F43
:104AD0008DB081460C4693464FF0000AD046FE4901
:104AE000D9F80000884202D10026012501E0012604
:104AF0000025002710E007EB470201AB03EBC201E2
:104B00007A1CD0B205F01EF920B14FF0010A08203E
:104B1000C9F85400781CC7B2022FECD3BAF1000FC9
:104B20007ED1ED48006800F0010038B1EA48006825
:104B300020F00100E849086048F00108E7480068F3
:104B400000F0010038B1E548006820F00100E349B9
:104B5000086048F00208E24806EB460101AA02EBB1
:104B6000C1018968491E50F8210020F48072DC4898
:104B700006EB460101AB03EBC1018968491E40F811
:104B80002120001F006800F0010000287FD0D448D9
:104B9000001F006820F00100D149091F0860012DA5
:104BA00073D1081D05EB450101AA52F83110491EC9
:104BB00050F8210040F00202C94805EB450153F8C6
:104BC0003110491E40F8212005EB450001A901EBF9
:104BD000C0004068A0B1C24805EB450101AA02EB44
:104BE000C1014968491E50F8210040F02002BC482C
:104BF00005EB450103EBC1014968491E40F821203E
:104C000005EB450001A901EBC000C068D8B1B4486C
:104C100005EB450101AA02EBC101097B491E00E039
:104C2000C6E201F0010150F8210040F48022AC48B6
:104C300005EB450101AB03EBC101097B491E01F006
:104C4000010140F8212005EB450001A901EBC0005E
:104C50000069002819D0A24805EB450101AA02EB22
:104C6000C101097C491E01F0010150F8210040F00A
:104C700080629B4805EB450101AB03EBC101097C58
:104C8000491E01F0010140F8212079E0FFE706EB21
:104C9000460001A951F83000002871D0904806EB79
:104CA000460101AA52F83110491E50F8210020F0A7
:104CB00001028B4806EB460101AB53F83110491E47
:104CC00040F8212006EB460001A901EBC000406836
:104CD000A0B1834806EB460101AA02EBC101496875
:104CE000491E50F8210020F010027D4806EB4601D5
:104CF00003EBC1014968491E40F8212006EB46003C
:104D000001A901EBC000C068C8B1754806EB4601B7
:104D100001AA02EBC101097B491E01F0010150F813
:104D2000210020F480326E4806EB460101AB03EB14
:104D3000C101097B491E01F0010140F8212006EB69
:104D4000460001A901EBC0000069C8B1644806EB48
:104D5000460101AA02EBC101097C491E01F00101D3
:104D600050F8210020F080725D4806EB460101AB4F
:104D700003EBC101097C491E01F0010140F821202B
:104D800005EB450101AA52F83110206888421FD076
:104D900005EB450102EBC10160684968884217D004
:104DA00005EB450102EBC101A068896888420FD07C
:104DB00005EB450102EBC101E068C968884207D0F4
:104DC00005EB450102EBC10120690969884227D141
:104DD00005EB450101AA52F831102068884220D124
:104DE00005EB450102EBC10160684968884218D1B2
:104DF00005EB450102EBC101E068C968884210D1AA
:104E000005EB450102EBC10120690969884208D11F
:104E10003348001F006840F001003149091F086055
:104E20008EE02F4805EB450101AA52F83110491ECA
:104E300050F8210020F00102294805EB450101ABA3
:104E400053F83110491E40F8212005EB450001A917
:104E500001EBC0004068A0B1214805EB450101AA63
:104E600002EBC1014968491E50F8210020F01002F0
:104E70001B4805EB450103EBC1014968491E40F899
:104E80002120174805EB450101AA02EBC101896801
:104E9000491E50F8210020F48072114805EB4501AD
:104EA00001AB03EBC1018968491E40F8212005EBE5
:104EB000450001A901EBC000C06800B3084805EB3C
:104EC000450101AA02EBC101097B491E01F0010164
:104ED00050F8210006E000000050005200A00052EF
:104EE00004B4005220F48032B34805EB450103EBD3
:104EF000C101097B491E01F0010140F8212005EBA9
:104F0000450001A901EBC0000069C8B1AA4805EB42
:104F1000450101AA02EBC101097C491E01F0010112
:104F200050F8210020F08072A34805EB450101AB49
:104F300003EBC101097C491E01F0010140F8212069
:104F40009D48A168491E50F8210020F440704FF49C
:104F5000807141EA462108439749A268521E41F8F0
:104F600022006069401E091F0968C1F30741884299
:104F70000BD99148001F006820F47F01A08A401ED1
:104F800041EA00408C49091F08608B48001F0068F7
:104F900000F00100002875D087482168491E50F8AC
:104FA000210020F00300401C83492268521E41F872
:104FB0002200606868B108466168491E50F8210007
:104FC00020F0300040F010027B486168491E40F834
:104FD0002120E06800F4803090B17748217B491EA1
:104FE00001F0010150F8210020F4E02040F480326B
:104FF0007148217B491E01F0010140F8212013E096
:10500000E06888B16C48217B491E01F0010150F82D
:10501000210020F0E06040F080726748217B491E4B
:1050200001F0010140F82120206900F4803090B1A6
:105030006148217C491E01F0010150F8210020F453
:10504000E02040F440325C48217C491E01F001011F
:1050500040F821209AE02069002811D05648217C90
:10506000491E01F0010150F8210020F0E06040F0FD
:1050700040725148217C491E01F0010140F8212075
:1050800084E0FFE74C482168491E50F8210020F0D9
:105090000300012141EA4601084347492268521EA4
:1050A00041F82200606878B108466168491E50F8EE
:1050B000210020F03000102141EA461108433E490A
:1050C0006268521E41F82200E06800F48030A8B106
:1050D0003948217B491E01F0010150F8210020F4DC
:1050E000E0204FF4803141EA864108433249227B77
:1050F000521E02F0010241F8220016E0E068A0B161
:105100002D48217B491E01F0010150F8210020F0BB
:10511000E0604FF0807141EA866108432649227BB6
:10512000521E02F0010241F82200206900F4803092
:10513000A8B12148217C491E01F0010150F821004D
:1051400020F4E0204FF4403141EA864108431A49F7
:10515000227C521E02F0010241F8220016E0206972
:10516000A0B11548217C491E01F0010150F8210031
:1051700020F0E0614FF0407040EA866001430E4845
:10518000227C521E02F0010240F8221008F00100B9
:1051900028B10A48006840F001000849086008F09A
:1051A000020028B10648006840F001000449086088
:1051B00050460DB0BDE8F08F04B4005200500052CC
:1051C00000A00052F8B504460025FFF775FB06461F
:1051D0000CB901257AE000206065206D002875D1AA
:1051E000204600F077F841F28831204600F044F97B
:1051F000208A401EE16841EA00416069401E41EAA0
:105200000020616B0843E169084321688968304ADE
:1052100011400843216888602068C06820F4E020BD
:10522000216A08432168C860208EA16B41EA0040D2
:10523000216808612168E06B48612068006820F4FB
:10524000F8516068401E41EA002021680860A06DA6
:105250003346002220210090204604F0E7FD054659
:105260008DBB2068C06820F0FF00616A491E0843BA
:105270002168C8602068006820F04000A1680843E9
:1052800021680860D4E90A0108432168D1F80811AF
:1052900021F0A04108432168C1F808012068006896
:1052A00040F0010021680860A069022805D120684B
:1052B000806840F0020021688860E068B0F1806F8B
:1052C00002D10120206501E0022020652846F8BDBA
:1052D000F4F8E0F810B5B6B00446142130A8FBF796
:1052E000FDF9B82102A8FBF7F9F95D492068884269
:1052F0007ED14FF000710020CDE90210159002A878
:1053000000F030FB08B1FBF7B2FF00BF5548006862
:1053100040F40010534908600846006800F400108B
:10532000019000BF00BF00BF0846006840F40020A5
:1053300008600846006800F40020019000BF00BF2C
:1053400000BF48480C30006840F0010045490C316E
:1053500008600846006800F00100019000BF00BF2F
:1053600000BF0846006840F0020008600846006878
:1053700000F00200019000BF00BF00BF08460068B7
:1053800040F0100008600846006800F0100001902E
:1053900000BF00BF00BF0846006840F0080008607A
:1053A0000846006800F00800019000BF00BF02201E
:1053B00030903190002032900320339009203490B7
:1053C00030A92948FFF77AF908203090022031905F
:1053D00000203290032033900620349030A92248D8
:1053E000FFF76CF90120309002203190002000E09E
:1053F00034E03290032033900420349030A91B48CD
:10540000FFF75CF9042030900220319000203290A8
:10541000032033900920349030A91448FFF74EF947
:105420004FF4006030900220319000203290032031
:1054300033900B20349030A90D48FFF73FF94FF41B
:105440000060309002203190002032900320339091
:105450000920349030A90748FFF730F936B010BD65
:1054600000A00052D4440258000002580004025820
:1054700000100258000C0258024691650020704747
:1054800070B5044615480068C0F3800048B9134859
:10549000006800F00700A04201D0012070BD00208C
:1054A000FCE70E48006820F0070020430B49086025
:1054B000FFF702FA054607E0FFF7FEF9401BB0F5DB
:1054C0007A7F01D90120E9E7044808380068C0F371
:1054D00040300028F0D00020E0E700000C480258DF
:1054E00010B501F075FA05490968C1F30211044AC3
:1054F000515C01F01F01C84010BD0000204402585B
:1055000020F3000870B50146844D2D6805F00303B3
:10551000824D2D68C5F30530804D2D1D2D68C5F3D6
:1055200000147E4D14352D68C5F3CC0515FB04F52C
:1055300001EE105AB8EE411AF0EE410A00286FD081
:1055400023B1012B4ED0022B6BD16BE0734D283D64
:105550002D68C5F340153DB3704D283D2D68C5F34A
:10556000C1066F4D25FA06F201EE102AF8EE411A37
:1055700001EE100AB8EE411A81EE812A9FED691AF8
:10558000C0EE811A654D10352D68C5F3080501EE92
:10559000105AB8EE411A31EE811AF7EE001A31EEC8
:1055A000211A22EE010A1CE001EE100AB8EE411A9F
:1055B000DFED5D1A81EE812A9FED5A1AC0EE811A45
:1055C000564D10352D68C5F3080501EE105AB8EE9A
:1055D000411A31EE811AF7EE001A31EE211A22EE4D
:1055E000010A5BE001EE100AB8EE411ADFED4F1A36
:1055F00081EE812A9FED4B1AC0EE811A474D10357E
:105600002D68C5F3080501EE105AB8EE411A31EEC7
:10561000811AF7EE001A31EE211A22EE010A3DE05E
:1056200077E01DE001EE100AB8EE411A9FED402A26
:10563000C2EE011A9FED3B1A80EE812A374D1035DC
:105640002D68C5F3080501EE105AB8EE411A32EE86
:10565000011AB7EE002A31EE021A21EE810A1DE08E
:1056600001EE100AB8EE411ADFED301A81EE812A00
:105670009FED2C1AC0EE811A284D10352D68C5F308
:10568000080501EE105AB8EE411A31EE811AF7EE14
:10569000001A31EE211A22EE010A00BF00BF1F4D91
:1056A00010352D68C5F3462501EE105AB8EE411AA3
:1056B000F7EE001A31EE211AC0EE011ABCEEE11A23
:1056C00081ED001A154D10352D68C5F3064501EE24
:1056D000105AB8EE411AF7EE001A31EE211AC0EE58
:1056E000011ABCEEE11A81ED011A0C4D10352D683E
:1056F000C5F3066501EE105AB8EE411AF7EE001A2E
:1057000031EE211AC0EE011ABCEEE11A81ED021A47
:1057100003E000250D604D608D6070BD2844025887
:105720000090D003000000460024744C0024744A0A
:10573000001BB74B70B50146844D2D6805F003037F
:10574000824D2D68C5F30550804D2D1D2D68C5F384
:1057500000247E4D1C352D68C5F3CC0515FB04F5E2
:1057600001EE105AB8EE411AF0EE410A00286FD04F
:1057700023B1012B4ED0022B6BD16BE0734D283D32
:105780002D68C5F340153DB3704D283D2D68C5F318
:10579000C1066F4D25FA06F201EE102AF8EE411A05
:1057A00001EE100AB8EE411A81EE812A9FED691AC6
:1057B000C0EE811A654D18352D68C5F3080501EE58
:1057C000105AB8EE411A31EE811AF7EE001A31EE96
:1057D000211A22EE010A1CE001EE100AB8EE411A6D
:1057E000DFED5D1A81EE812A9FED5A1AC0EE811A13
:1057F000564D18352D68C5F3080501EE105AB8EE60
:10580000411A31EE811AF7EE001A31EE211A22EE1A
:10581000010A5BE001EE100AB8EE411ADFED4F1A03
:1058200081EE812A9FED4B1AC0EE811A474D183543
:105830002D68C5F3080501EE105AB8EE411A31EE95
:10584000811AF7EE001A31EE211A22EE010A3DE02C
:1058500077E01DE001EE100AB8EE411A9FED402AF4
:10586000C2EE011A9FED3B1A80EE812A374D1835A2
:105870002D68C5F3080501EE105AB8EE411A32EE54
:10588000011AB7EE002A31EE021A21EE810A1DE05C
:1058900001EE100AB8EE411ADFED301A81EE812ACE
:1058A0009FED2C1AC0EE811A284D18352D68C5F3CE
:1058B000080501EE105AB8EE411A31EE811AF7EEE2
:1058C000001A31EE211A22EE010A00BF00BF1F4D5F
:1058D00018352D68C5F3462501EE105AB8EE411A69
:1058E000F7EE001A31EE211AC0EE011ABCEEE11AF1
:1058F00081ED001A154D18352D68C5F3064501EEEA
:10590000105AB8EE411AF7EE001A31EE211AC0EE25
:10591000011ABCEEE11A81ED011A0C4D18352D6803
:10592000C5F3066501EE105AB8EE411AF7EE001AFB
:1059300031EE211AC0EE011ABCEEE11A81ED021A15
:1059400003E000250D604D608D6070BD2844025855
:105950000090D003000000460024744C0024744AD8
:10596000001BB74B2DE9F04104460025A8464FF037
:105970000062D4E900101140002013465940404015
:10598000014331D1606E48B1B0F5801F0DD0B0F544
:10599000001F11D0B0F5401F16D114E0FE4800687A
:1059A00040F40030FC49086010E0022104F10800D6
:1059B00004F080FB054609E0022104F1280004F010
:1059C0002BFC054602E001E0012500BF00BF55B9F0
:1059D000F1482430006820F44010616E0843EE491D
:1059E0002431086000E0A8464FF48072D4E900102A
:1059F0001140002013465940404001432ED1A06D74
:105A000005281BD2DFE800F0030A11181900E2484C
:105A1000006840F40030E049086011E0002104F122
:105A2000080004F047FB05460AE0002104F12800C5
:105A300004F0F2FB054603E002E001E0012500BFAF
:105A400000BF55B9D4482430006820F00700A16D8C
:105A50000843D1492431086000E0A8464FF4806231
:105A6000D4E9001011400020134659404040014342
:105A70003DD1D4F8A400B0F5C00F24D007DC68B144
:105A8000B0F5001F11D0B0F5800F1FD114E0B0F5B4
:105A9000000F19D0B0F5200F18D116E0BE480068ED
:105AA00040F40030BC49086012E0002104F1080015
:105AB00004F000FB05460BE0002104F1280004F08F
:105AC000ABFB054604E003E002E001E0012500BF76
:105AD00000BF5DB9B0482C30006820F46000D4F8F5
